:020000040000FA
:1000000000008A113F280034F200030E8301F10042
:100010000A088A01F000040883120313B700831250
:1000200003130B1183120313350883120313B40057
:10003000340C03181E28831203130710031C2328F3
:1000400083120313071483120313350836040319AC
:100050002C28B501B6013128013083120313B500F5
:10006000B601831203133708831203138400700848
:100070008A008301710E8300F20E720E0900563061
:10008000F6000130F70080308A11000035218A1116
:10009000000083120313A1007708A0005830A200CB
:1000A0000130A300831203132008A4002108A50037
:1000B000FF30A007031CA103240825040319D72837
:1000C00004302207A400A501A50D2308A5072408D4
:1000D000F6002508F70080308A11000035218A11CA
:1000E000000083120313A7007708A6002208F60079
:1000F0002308F70080308A11000035218A110000A2
:1001000083120313A900A5007708A800A4000230F9
:100110002207A400A501A50D2308A5072408F600C1
:100120002508F70080308A11000035218A1100006F
:1001300083120313A500AB007708A400AA00831262
:1001400003132608AA002708AB00FF30A607031CEC
:10015000A7032A082B040319D0282808F600290829
:10016000F70080308A11000022218A1100008312DA
:100170000313AA0024088312031384008313831239
:100180000313251883172A08831203138000831290
:100190000313A80A0319A90AA40A0319A50A9F2888
:1001A000063083120313A2070318A30A52288A11E8
:1001B0000000DB280800831603130F140F178F1697
:1001C0000F16831203179E019F01831603138701E5
:1001D00083120313870183160313811283120313FF
:1001E00081018316031381110115811401108312FB
:1001F00003138B168B17FB28080083120313AF0021
:100200007708AE007608AD007508AC0083120313C2
:100210002C08B0002D08B1002E08B2002F08B30042
:10022000FF30AC07FF30031CAD07FF30031CAE07E7
:10023000FF30031CAF073008310432043304031DC0
:1002400006290800003A03192929803A03193029A0
:100250000034760884008313771883170008080099
:1002600077088A00760882000800003A03193D29C1
:10027000803A03194729F701003476088400831374
:10028000771883170008F700840A000808008A110D
:1002900000003021F500F60FF703F70A8A1100007D
:1002A0003021F4007508F7007408080002340034A7
:1002B00064340134353400340234003403340034FF
:0C02C000383400340134003400340034C1
:02400E00D430AC
:00000001FF
