:020000040000FA
:1000000000008A110328D330F6000030F70080305A
:100010008A110000B2208A11000083120313A1008C
:100020007708A000D530A2000030A300831203138C
:100030002008A4002108A500FF30A007031CA1038D
:100040002408250403199B2804302207A400A501D5
:10005000A50D2308A5072408F6002508F700803021
:100060008A110000B2208A11000083120313A70036
:100070007708A6002208F6002308F70080308A11CE
:100080000000B2208A11000083120313A900A5000A
:100090007708A800A40002302207A400A501A50D3E
:1000A0002308A5072408F6002508F70080308A11E8
:1000B0000000B2208A11000083120313A500AB00D8
:1000C0007708A400AA00831203132608AA002708B1
:1000D000AB00FF30A607031CA7032A082B04031953
:1000E00094282808F6002908F70080308A110000BB
:1000F0009F208A11000083120313AA002408831290
:1001000003138400831383120313251883172A080B
:1001100083120313800083120313A80A0319A90A88
:10012000A40A0319A50A6328063083120313A20741
:100130000318A30A16288A110000DB280800003AD9
:100140000319A628803A0319AD28003476088400E4
:100150008313771883170008080077088A00760849
:1001600082000800003A0319BA28803A0319C4280B
:10017000F70100347608840083137718831700088A
:10018000F700840A000808008A110000AD20F5007D
:10019000F60FF703F70A8A110000AD20F400750886
:1001A000F7007408080001340034DC3400342C34C7
:0A01B000003401340034080000346C
:00000001FF
